:020000040000FA
:020000006B286B
:08000800A301A200FF30A207D2
:10001000031CA307031C66280330A100DF30122055
:100020000628A101E83EA000A109FC30031C1B2802
:10003000A00703181828A0076400A10F182820188B
:100040002128A01C2528000025280800013EA70023
:100050000A30A200A3014A20A70B2B28240808007D
:10006000A20001303328A80023082102031D3A28EA
:100070002208200204300318013003190230280539
:10008000031DFF3066280038031DFF300405031DE3
:10009000FF306628A501A4011030A600210DA40D93
:1000A000A50D2208A4022308031C230FA502031890
:1000B00060282208A40723080318230FA5070310AC
:1000C000A00DA10DA60B4E2820086628831303134C
:1000D000831264000800831607309F00F830850003
:1000E000860183120130C6000230C7000430C80008
:1000F0000830C9003F30B8000630B9005B30BA00A4
:100100004F30BB006630BC006D30BD007D30BE009E
:100110000730BF007F30C0006F30C1001030C20018
:100120002030C3004030C4008030C5000510851069
:100130000610861006118611CF01640005304F02AB
:100140008A110A1203181B294F08423E8400000836
:10015000860003018519FF30CA000301061AFF302B
:10016000CC004A0884004C088A014320CC00CD0012
:1001700064004C084D048A110A120319C328D20ADC
:100180008A110A121D2903018519FF30CA000301D3
:10019000861AFF30CC004A0884004C088A014320AC
:1001A000CC00CD0064004C084D048A110A120319DA
:1001B000E42864005208003C8A110A120319E4285A
:1001C000D2038A110A121D2903018519FF30CA00C2
:1001D0000301061BFF30CC004A0884004C088A014A
:1001E0004320CC00CD0064004C084D048A110A1253
:1001F0000319FD288A110A12552903018519FF30B8
:10020000CA000301861BFF30CC004A0884004C085A
:100210008A014320CC00CD0064004C084D048A11B3
:100220000A12031916298A110A12CC29CF0A8A1137
:100230000A12031D9D288A01962864000930520283
:100240008A110A12031849295208A000A10100309E
:100250008A012620D0005208A000A10101308A01A5
:100260002620D100051485105008383E840000086F
:10027000860064308A010420051085145108383E38
:1002800084000008860064308A0104208A110A1262
:100290005329051485105208383E84000008860052
:1002A00064308A0104208A019628CE01FF3052076B
:1002B000CA00FF300318013ECB004E08A000A10188
:1002C0004B08A3004A088A0130208A110A12031D34
:1002D000CA2985100510D00164000A3050028A1125
:1002E0000A1203188D29D1016400053051028A11C8
:1002F0000A12031888295108463E84000008860027
:1003000064308A010420D10A8A110A12031D74295B
:10031000D00A8A110A12031D6C29CE0A6400093022
:100320004E028A110A120318BA294E08A000A10130
:1003300000308A012620D0004E08A000A101013023
:100340008A012620D100051485105008383E84000B
:100350000008860064308A010420051085145108C5
:10036000383E84000008860064308A0104208A1127
:100370000A12C429051485105208383E840000086A
:10038000860064308A010420CE03CE0A8A110A1244
:10039000031D56298A01962806108610061186111B
:0403A0008A01962810
:02400E00753FFC
:00000001FF
