:020000040000FA
:02000000762860
:080008009818181218162C08B4
:10001000A0002D08A100A201A3010E280F28640052
:100020008C1A2528FF30A207031CA307031CA00776
:10003000031CA107031C0800220F0D28230F0E2804
:100040003230A2000030A3000F281A0803147128D0
:1000500064000C1E2828990003147128A301A20033
:10006000FF30A207031CA307031C71280330A10063
:10007000DF303C203028A101E83EA000A109FC307F
:10008000031C4528A00703184228A0076400A10FFD
:10009000422820184B28A01C4F2800004F28080099
:1000A000A101A301A20003305A28A101A301A200CB
:1000B00006305A28A80023082102031D61282208BF
:1000C0002002043003180130031902302805031DF3
:1000D000FF3071280038031DFF300405031DFF3079
:1000E00071288313031383126400080083161930E8
:1000F00099002430980083129030980083160730BE
:100100009F00F8308500860183120130B80002306C
:10011000B9000430BA000830BB0085100510643007
:10012000AC00AD018A0104208A110A12031CA22826
:10013000C20042088A0128200D308A0128200A3096
:100140008A01282064004208613C8A110A12031DBA
:10015000D028FF30BC004108A00003308A015520A0
:10016000BE003C0884003E088A016A20BE00BF0031
:1001700064003E083F048A110A120319CB28410883
:10018000383E84000008860064308A012E20C103B6
:100190008A110A12CD280330C1008A110A120529DA
:1001A00064004208643C8A110A12031DEE286400B0
:1001B000043041028A110A120318EA284108383E25
:1001C00084000008860064308A012E20C10A8A114A
:1001D0000A12EB28C1018A110A120529640042089B
:1001E000773C8A110A12031DFB288A110A12072183
:1001F0008A110A12052964004208733C8A110A1206
:10020000031D05298A110A122A218A018F28C20199
:1002100064000A3042028A110A1203182929C30114
:100220006400053043028A110A1203182429430886
:10023000383E84000008860064308A012E20C30AFC
:100240008A110A12031D1029C20A8A110A12031DFB
:1002500008290800C20164000A3042028A110A1209
:1002600003184E290430C300FF304307BC00FF30A1
:100270000318013EBD003C08383E8400000886009B
:1002800064308A012E200130C3028A110A12031839
:0E0290003429C20A8A110A12031D2B29080004
:02400E00753FFC
:00000001FF
