:020000040000FA
:020000002B28AB
:08000800A301A200FF30A207D2
:10001000031CA307031C26280330A100DF30122095
:100020000628A101E83EA000A109FC30031C1B2802
:10003000A00703181828A0076400A10F182820188B
:100040002128A01C2528000025280800831303135D
:10005000831264000800831607309F00F830850083
:10006000860183120130B8000230B9000430BA00B2
:100070000830BB00851005108A110A1244208A112D
:100080000A1267208A013C28C00164000A3040023D
:100090008A110A1203186628C10164000530410262
:1000A0008A110A12031861284108383E84000008AA
:1000B000860064308A010420C10A8A110A12031DD5
:1000C0004D28C00A8A110A12031D45280800C001E4
:1000D00064000A3040028A110A1203188B28043087
:1000E000C100FF304107BC00FF300318013EBD00D6
:1000F0003C08383E84000008860064308A010420F1
:100100000130C1028A110A1203187128C00A8A112B
:080110000A12031D6828080013
:02400E00753FFC
:00000001FF
