:020000040000FA
:02000000512885
:08000800A301A200FF30A207D2
:10001000031CA307031C4C280330A100DF3012206F
:100020000628A101E83EA000A109FC30031C1B2802
:10003000A00703181828A0076400A10F182820188B
:100040002128A01C2528000025280800013EA70023
:100050000A30A200A3013020A70B2B282408080097
:10006000A501A4011030A600210DA40DA50D2208A4
:10007000A4022308031C230FA50203184628220804
:10008000A40723080318230FA5070310A00DA10D33
:10009000A60B342820084C28831303138312640012
:1000A0000800831607309F00F83085008601831210
:1000B0000130C2000230C3000430C4000830C50063
:1000C0003F30B8000630B9005B30BA004F30BB009B
:1000D0006630BC006D30BD007D30BE000730BF0013
:1000E0007F30C0006F30C100851005108A110A12E0
:1000F000B12064000A304B028A110A12031CA528A1
:100100004B08A000A10100308A012620C9004B083D
:10011000A000A10101308A012620CA000514851023
:100120004908383E8400000886000A308A0104200D
:10013000051085144A08383E8400000886000A30FD
:100140008A0104208A110A12AF28051485104B0871
:10015000383E8400000886000A308A0104208A01A3
:10016000762885100510C90164000A3049028A11F9
:100170000A120318D528CA01640005304A028A1100
:100180000A120318D0284A08423E8400000886005C
:100190000A308A010420CA0A8A110A12031DBC28E7
:0E01A000C90A8A110A12031DB428CB0A0800EE
:02400E00753FFC
:00000001FF
