:020000040000FA
:020000004C288A
:08000800A301A200FF30A207D2
:10001000031CA307031C47280330A100DF30122074
:100020000628A101E83EA000A109FC30031C1B2802
:10003000A00703181828A0076400A10F182820188B
:100040002128A01C2528000025280800A101A301C3
:10005000A20003303028A101A301A20006303028FD
:10006000A80023082102031D37282208200204309B
:1000700003180130031902302805031DFF304728FB
:100080000038031DFF300405031DFF30472883138C
:100090000313831264000800831607309F00F830B2
:1000A0008500860183120130B8000230B9000430A7
:1000B000BA000830BB008510051064008A110A12CE
:1000C000051E65288A110A126F2064008A110A121F
:1000D000051A6D288A110A1284208A015D2864009D
:1000E000043041028A110A12031882284108383E5E
:1000F00084000008860064308A010420C10A8A1145
:100100000A128328C1010800FF30BC004108A0008A
:1001100003308A012B20BE003C0884003E088A017F
:100120004020BE00BF0064003E083F048A110A124E
:100130000319A6284108383E840000088600643070
:100140008A010420C1038A110A12A8280330C100C1
:020150000800A5
:02400E00753FFC
:00000001FF
