:020000040000FA
:020000003328A3
:08000800A301A200FF30A207D2
:10001000031CA307031C2E280330A100DF3012208D
:100020000628A101E83EA000A109FC30031C1B2802
:10003000A00703181828A0076400A10F182820188B
:100040002128A01C25280000252808000310A00D49
:10005000A10DFF3E0318262820082E288313031322
:10006000831264000800831607309F008501860113
:1000700083120514013086000310860D64308A0156
:10008000042064000608803C8A110A12031D4D28D2
:0E0090000130860064308A0104208A013C2879
:02400E00753FFC
:00000001FF
