:020000040000FA
:020000003B289B
:08000800A301A200FF30A207D2
:10001000031CA307031C36280330A100DF30122085
:100020000628A101E83EA000A109FC30031C1B2802
:10003000A00703181828A0076400A10F182820188B
:100040002128A01C25280000252808000310A00D49
:10005000A10DFF3E03182628200836280310A10C06
:10006000A00CFF3E03182E28200836288313031304
:10007000831264000800831685018601831205142B
:100080000130860064000608803C03194E280310E6
:10009000860D0130A300F4300520422864000608D4
:1000A000013C03195A280310860C0130A300F430D8
:0600B00005204E28422845
:02400E00653F0C
:00000001FF
