:020000040000FA
:10000000B201CA28A800F839A000A00CA00C200C4E
:1000100084077720A8000005C5282808031C0301D1
:10002000000628058006C528A501A400B3172730BF
:10003000A300103027200330A300E8302720A301BD
:1000400064302720A3010A30272024083228A20088
:100050002508A1002408A000A9202008031DB3132F
:10006000B31B0800303EA7000911091009108316C0
:10007000091109100910880183122708B2185B289A
:100080003A30A100FC3095203330A6006E201030AD
:10009000A100683095206E20643094206E203830A6
:1000A0005A200C305A2001305A2006305A20B214FF
:1000B00027085B283214A600321C69280910033C6B
:1000C000031C6E286E200730A100D0309520031449
:1000D00008003214FE3C0319C52809140915260826
:1000E00088003210091132309420031408000030C7
:1000F0008A00280807397F3E03188A0A82000134E3
:100100000234043408341034203440348034A301E1
:10011000A200FF30A207031CA307031CC52803305D
:10012000A100DF3095208928A101E83EA000A109A7
:10013000FC30031C9E28A00703189B28A00764001E
:10014000A10F9B282018A428A01CA8280000A828DC
:100150000800A501A4011030A600210DA40DA50DD5
:100160002208A4022308031C230FA5020318BF289A
:100170002208A40723080318230FA5070310A00DC6
:10018000A10DA60BAD282008C528831303138312E5
:1001900064000800831689018312891083160730D2
:1001A0009F00643083128A018720FE308A01332049
:1001B00040308A01332007308A01332005308A011C
:1001C000332007308A01332000308A013320003089
:1001D0008A01332000308A01332000308A01332025
:1001E000831606108312061012308A018720061427
:1001F00028308A01942083160614831264008A1121
:100200000A12061805298A01FE2855308A01942011
:10021000BA010730B80064008A110A1206181229C0
:100220008A010B2928308A01942064008A110A125D
:10023000061C23293A3084003808003E8A01022037
:1002400003148A010D2064008A110A12061C2A294F
:100250008A0123290130B8028A110A1203180B29D6
:10026000BB010730B80064008A110A1206183A2947
:100270008A01332928308A01942064008A110A12E5
:10028000061C4B293B3084003808003E8A010220BE
:1002900003148A010D2064008A110A12061C5229D7
:1002A0008A014B290130B8028A110A120318332936
:1002B000BC010730B80064008A110A1206186229CE
:1002C0008A015B2928308A01942064008A110A126D
:1002D000061C73293C3084003808003E8A01022045
:1002E00003148A010D2064008A110A12061C7A295F
:1002F0008A0173290130B8028A110A1203185B2996
:10030000BD010730B80064008A110A1206188A2954
:100310008A01832928308A01942064008A110A12F4
:10032000061C9B293D3084003808003E8A010220CB
:1003300003148A010D2064008A110A12061CA229E6
:100340008A019B290130B8028A110A1203188329F5
:10035000B9010730B80064008A110A120618B229E0
:100360008A01AB2928308A01942064008A110A127C
:10037000061CC329393084003808003E8A01022057
:1003800003148A010D2064008A110A12061CCA296E
:100390008A01C3290130B8028A110A120318AB2955
:1003A000FE308A01332001308A0133206E308A0109
:1003B000332065308A0133206D308A0133203D308F
:1003C0008A0133203A088A0114202E308A01332012
:1003D0003B088A01142025308A0133200130A30014
:1003E000F4308A018820FE308A013320C0308A012F
:1003F000332073308A01332069308A01332063301F
:100400008A01332061308A0133206B308A01332026
:100410006C308A01332069308A0133206B308A01C5
:1004200033203D308A0133203C088A0114202E30CD
:100430008A0133203D088A01142000308A013320CC
:1004400043308A0133200130A300F4308A01882030
:10045000FE308A01332094308A0133206B308A01C8
:1004600033206F308A0133206E308A01332074309C
:100470008A01332072308A0133206F308A013320A1
:100480006C308A0133203D308A01332039088A01DB
:1004900014200130A300F4308A0188208A01F0285A
:02400E00753FFC
:00000001FF
