:020000040000FA
:10000000B201B928A501A400B3172730A30010300E
:1000100015200330A300E8301520A301643015201B
:10002000A3010A30152024082028A2002508A100D9
:100030002408A00098202008031DB313B31B080058
:10004000303EA70086100610061083168610061094
:100050000610880183122708B21849283A30A100F7
:10006000FC3084203330A6005C201030A1006830C2
:1000700084205C20643083205C20383048200C30A1
:1000800048200130482006304820B214270849286B
:100090003214A600321C57280610033C031C5C28AF
:1000A0005C200730A100D0308420031408003214F3
:1000B000FE3C0319B4280614861426088800321062
:1000C00086103230832003140800A000A00DA00D7C
:1000D000200D383941389F000030A1003230842093
:1000E0001F151F197128A1011E08B428A301A20021
:1000F000FF30A207031CA307031CB4280330A10090
:10010000DF3084207828A101E83EA000A109FC305E
:10011000031C8D28A00703188A28A0076400A10FDC
:100120008A2820189328A01C9728000097280800E8
:10013000A501A4011030A600210DA40DA50D2208D3
:10014000A4022308031C230FA5020318AE282208CB
:10015000A40723080318230FA5070310A00DA10D62
:10016000A60B9C282008B428831303138312640071
:1001700008008316013085009F01831200308A0138
:100180006520B800FE308A01212001308A0121203B
:1001900064308A01212065308A01212067308A017C
:1001A000212065308A01212072308A0121203808FF
:1001B0008A0102200330A300E8308A0177208A01F7
:0201C000BE2857
:02400E00753FFC
:00000001FF
