:020000040000FA
:10000000B201D928A501A400B3172730A3001030EE
:1000100015200330A300E8301520A301643015201B
:10002000A3010A30152024082028A2002508A100D9
:100030002408A000A2202008031DB313B31B08004E
:10004000303EA70086100610061083168610061094
:100050000610880183122708B21849283A30A100F7
:10006000FC3084203330A6005C201030A1006830C2
:1000700084205C20643083205C20383048200C30A1
:1000800048200130482006304820B214270849286B
:100090003214A600321C57280610033C031C5C28AF
:1000A0005C200730A100D0308420031408003214F3
:1000B000FE3C0319D4280614861426088800321042
:1000C00086103230832003140800A000A00DA00D7C
:1000D000200D383941389F000030A1003230842093
:1000E0001F151F197128A1011E08D428A301A20001
:1000F000FF30A207031CA307031CD4280330A10070
:10010000DF3084207828A101E83EA000A109FC305E
:10011000031C8D28A00703188A28A0076400A10FDC
:100120008A2820189328A01C9728000097280800E8
:10013000013EA7000A30A200A301A220A70B9D2820
:1001400024080800A501A4011030A600210DA40D6B
:10015000A50D2208A4022308031C230FA5020318DF
:10016000B8282208A40723080318230FA5070310A3
:10017000A00DA10DA60BA6282008D4281030A80099
:10018000A101A001A70CA60C031CCC282208A007E3
:1001900023080318230FA107A10CA00CA50CA40C85
:1001A000A80BC2282408D4288313031383126400E5
:1001B00008008316013085009F01831200308A01F8
:1001C0006520BA003A08A600A7010A30A200A301E0
:1001D0008A01BE20B8002508B9003808A6003908F1
:1001E000A7000530A200A3018A01BE20B80025089F
:1001F000B9003808A0003908A100FF30A200A3010F
:100200008A01A220B8002108B9003808A0003908E6
:10021000A10001308A019820BB003808A0003908ED
:10022000A10000308A019820BC00FE308A01212004
:1002300001308A01212063308A01212065308A0142
:10024000212076308A01212072308A0121206930F4
:100250008A0121206D308A0121203A308A01212033
:100260003A088A010220FE308A012120C0308A012A
:10027000212067308A01212065308A0121207230D7
:100280008A01212069308A0121206C308A012120D5
:1002900069308A0121206D308A0121203A308A019B
:1002A00021203B088A0102202E308A0121203C08AF
:1002B0008A01022076308A0121206F308A012120B4
:1002C0006C308A01212074308A0121200A308A0191
:0602D00076208A01DE2801
:02400E00753FFC
:00000001FF
