:020000040000FA
:020000002B28AB
:08000800A301A200FF30A207D2
:10001000031CA307031C26280330A100DF30122095
:100020000628A101E83EA000A109FC30031C1B2802
:10003000A00703181828A0076400A10F182820188B
:100040002128A01C2528000025280800831303135D
:10005000831264000800831607309F008501860123
:100060008312850186013F30B8000630B9005B304D
:10007000BA004F30BB006630BC006D30BD007D3033
:10008000BE000730BF007F30C0006F30C1000514D4
:10009000C40164000A3044028A110A1203185F285E
:1000A0004408383E8400000886000130A300F43084
:1000B0008A010520C40A8A110A12031D49288A01EF
:0200C0004828CE
:02400E00753FFC
:00000001FF
