:020000040000FA
:020000003B289B
:08000800A301A200FF30A207D2
:10001000031CA307031C36280330A100DF30122085
:100020000628A101E83EA000A109FC30031C1B2802
:10003000A00703181828A0076400A10F182820188B
:100040002128A01C25280000252808000310A00D49
:10005000A10DFF3E03182628200836280310A10C06
:10006000A00CFF3E03182E28200836288313031304
:10007000831264000800831607309F000F3085004C
:100080008601831205168516FE3086000130BA00FF
:100090000130BB008A110A12812064003B083A0239
:1000A0008A110A12031859288A110A1269208A0132
:1000B0004D2864003A083B028A110A120318652889
:1000C0008A110A1275208A015928051685168A0197
:1000D0004A28051285160310BA0D3A098600013028
:1000E000A300F4308A0105200800051685120310CC
:1000F000BA0C3A0986000130A300F4308A010520C9
:10010000080064008A110A12051888280130BB0013
:1001100064008A110A1285188F280430BB0064001D
:100120008A110A12051996281030BB0064008A1142
:0C0130000A1285199D284030BB00080011
:02400E00753FFC
:00000001FF
