:020000040000FA
:02000000512885
:08000800A301A200FF30A207D2
:10001000031CA307031C4C280330A100DF3012206F
:100020000628A101E83EA000A109FC30031C1B2802
:10003000A00703181828A0076400A10F182820188B
:100040002128A01C2528000025280800013EA70023
:100050000A30A200A3013020A70B2B282408080097
:10006000A501A4011030A600210DA40DA50D2208A4
:10007000A4022308031C230FA50203184628220804
:10008000A40723080318230FA5070310A00DA10D33
:10009000A60B342820084C28831303138312640012
:1000A0000800831607309F008501860183128501B1
:1000B00086013F30B8000630B9005B30BA004F30DF
:1000C000BB006630BC006D30BD007D30BE00073027
:1000D000BF007F30C0006F30C1000514C401640050
:1000E000643044028A110A120318AA284408A000A6
:1000F000A10100308A012620C5004408A000A1010A
:1001000001308A012620C600C70164003230470250
:100110008A110A120318A528051485104508383ECF
:1001200084000008860005308A010420051085142B
:100130004608383E84000008860005308A01042005
:10014000C70A8A110A12031D8528C40A8A110A12D5
:08015000031D6F288A016E28CF
:02400E00753FFC
:00000001FF
