:020000040000FA
:0200000067286F
:08000800A301A200FF30A207D2
:10001000031CA307031C62280330A100DF30122059
:100020000628A101E83EA000A109FC30031C1B2802
:10003000A00703181828A0076400A10F182820188B
:100040002128A01C2528000025280800013EA70023
:100050000A30A200A3013020A70B2B282408080097
:10006000A501A4011030A600210DA40DA50D2208A4
:10007000A4022308031C230FA50203184628220804
:10008000A40723080318230FA5070310A00DA10D33
:10009000A60B3428200862281030A800A101A00176
:1000A000A70CA60C031C5A282208A0072308031833
:1000B000230FA107A10CA00CA50CA40CA80B502881
:1000C0002408622883130313831264000800831634
:1000D00007309F00850186018312850186013F302C
:1000E000B8000630B9005B30BA004F30BB00663054
:1000F000BC006D30BD007D30BE000730BF007F30DA
:10010000C0006F30C100C4018A110A1237214408AF
:10011000A000A10100308A012620C7004408A000E9
:10012000A10101308A012620C8008A110A129A20F2
:100130008A018428831686018312051485104708D6
:10014000383E84000008860005308A01042005102E
:1001500085144808383E84000008860005308A016E
:1001600004200800640046082F3C8A110A12031D6F
:10017000C5284908A000A1014408A200A3018A01E2
:100180003020C5008A110A12FC28640046082A3C67
:100190008A110A12031DD8284908A600A70144089D
:1001A000A200A3018A014C20C5008A110A12FC2872
:1001B000640046082B3C8A110A12031DE5284908F1
:1001C0004407C5008A110A12FC28640046082D3C29
:1001D0008A110A12031DFC286400490844028A118E
:1001E0000A120318F92849084402C5008A110A12A4
:1001F000FC2844084902C50083168601831245087D
:10020000A000A10100308A012620C7004508A000F7
:10021000A10101308A012620C80005148510470875
:10022000383E84000008860005308A01042005104D
:1002300085144808383E84000008860005308A018D
:100240000420850183160F30860083120612861261
:100250000613861764008A110A12061D3529C40187
:10026000C501C901C6018A0184288A01B228850115
:1002700083160F3086008312061686120613861325
:1002800064008A110A12861D47290130C4006400E7
:100290008A110A12061D4E290230C40064008A1118
:1002A0000A12861C55290330C40064008A110A1200
:1002B000061C5E292B30C6004408C90006128616AB
:1002C0000613861364008A110A12861D69290430F8
:1002D000C40064008A110A12061D70290530C4008A
:1002E00064008A110A12861C77290630C400640053
:1002F0008A110A12061C80292D30C6004408C90044
:10030000061286120617861364008A110A12861DC9
:100310008B290730C40064008A110A12061D922935
:100320000830C40064008A110A12861C9929093019
:10033000C40064008A110A12061CA2292A30C600D1
:100340004408C900061286120613861764008A1133
:100350000A12861DAC29C40164008A110A12861C87
:10036000B3298A01B22864008A110A12061CBC292A
:0A0370002F30C6004408C900080041
:02400E00753FFC
:00000001FF
