:020000040000FA
:10000000B201E228A400B3172730A3001030142057
:100010000330A300E8301420A30164301420A301AE
:100020000A30142024081F28A2002508A100240853
:10003000A000BB202008031DB313B31B0800303EF3
:10004000A7000911091009108316091109100910D8
:10005000880183122708B21848283A30A100FC30E2
:10006000A7203330A6005B201030A1006830A72005
:100070005B206430A6205B20383047200C304720BE
:100080000130472006304720B21427084828321490
:10009000A600321C56280910033C031C5B285B2079
:1000A0000730A100D030A720031408003214FE3C12
:1000B0000319DD28091409152608880032100911D2
:1000C0003230A62003140800B4008417800484137F
:1000D000A201201CA20086200319DD288620031916
:1000E000DD288620DD28B40095202008210403198E
:1000F000DD28D72084133408800664007F288028F8
:10010000A00A0319A10F7D288006DD283408A20665
:100110000130A000A101000834052206031D0800DB
:10012000A00A0319A10F8B280800FF3A8417800545
:10013000DD28A301A200FF30A207031CA307031CB4
:10014000DD280330A100DF30A7209B28A101E83E75
:10015000A000A109FC30031CB028A0070318AD289B
:10016000A0076400A10FAD282018B628A01CBA284B
:100170000000BA280800A501A4011030A600210D36
:10018000A40DA50D2208A4022308031C230FA50219
:100190000318D1282208A40723080318230FA50752
:1001A0000310A00DA10DA60BBF282008DD28A00973
:1001B000A109A00A0319A10A0800831303138312DB
:1001C00064000800831689018312891083160730A2
:1001D0009F00643083128A01992086138A110A12C3
:1001E0001621FE308A01202001308A0120206D3046
:1001F0008A01202065308A01202073308A01202066
:1002000061308A01202066308A01202065308A0111
:1002100020203A308A0120203908A50038088A01B8
:10022000022064308A0199208A01EE280130A00062
:10023000A1010630840080308A0173200130A000C3
:100240000630840040308A0164202008BA0021086A
:10025000BB003A08A0003B08A1005830A2000230C1
:10026000A3008A01BB20B8002108B9000A308A0126
:0402700099200800C9
:02400E00753FFC
:00000001FF
