:020000040000FA
:10000000B2017C2898181812181664008C1E052856
:100010001A080314772864000C1E0B289900031497
:100020007728A70009110910091083160911091072
:100030000910880183122708B21839283A30A10024
:10004000FC3063203330A6004C201030A100683013
:1000500063204C20643062204C20383038200C3033
:1000600038200130382006303820B21427083928CB
:100070003214A600321C47280910033C031C4C28EC
:100080004C200730A100D030632003140800321444
:10009000FE3C031977280914091526088800321038
:1000A00009113230622003140800A301A200FF30BE
:1000B000A207031CA307031C77280330A100DF302D
:1000C00063205728A101E83EA000A109FC30031CD1
:1000D0006C28A00703186928A0076400A10F6928ED
:1000E00020187228A01C76280000762808008313A8
:1000F000031383126400080083161930990024301A
:100100009800831290309800831689018312891019
:10011000831607309F00643083128A0155208A01BC
:100120000220B80038088A010B20FE308A01112015
:1001300001308A01112038088A0111200130A30002
:0A014000F4308A0156208A018F284E
:02400E00753FFC
:00000001FF
