:020000040000FA
:10000000B2010C29040864000C1E03289900031493
:100010000729B216B21EB212B2191228B2154B201D
:10002000031839280830A3005F20A20DA30B142861
:10003000B21E442069206520B21A39203E202208D1
:1000400003100729B216B21EB21232192C28FE393B
:10005000B300321503100729321A3428A6003216CD
:100060004B20031839282608522003183928B21EBD
:1000700007294420692032113212B2113608840057
:100080003408841780044A2836088400340980051F
:100090008417800508003E2069204420652033082D
:1000A000B2190138A2000830A300A20D03183E20A7
:1000B000031C442069206520A30B55283E2069209D
:1000C0003608840034080005FF3E370884003509EF
:1000D00047283708840035084128B3132908031935
:1000E000B3170530A8002730A30010308320033059
:1000F000A300E8308320A30164308320A3010A30E9
:10010000832024088A28A2002508A1002408A00032
:10011000D0202008A000A8030319B313290803194D
:1001200094282802031808002008031DB313B31BEA
:100130000800303E0229A301A200FF30A207031CE1
:10014000A307031C07290330A100DF30A9209D2845
:10015000A101E83EA000A109FC30031CB228A007C1
:100160000318AF28A0076400A10FAF282018B828F3
:10017000A01CBC280000BC280800A2000130C02838
:10018000A80023082102031DC728220820020430EA
:1001900003180130031902302805031DFF30072919
:1001A000A501A4011030A600210DA40DA50D220863
:1001B000A4022308031C230FA5020318E628220823
:1001C000A40723080318230FA5070310A00DA10DF2
:1001D000A60BD428200807291030A800A101A001EF
:1001E000A70CA60C031CFA282208A0072308031852
:1001F000230FA107A10CA00CA50CA40CA80BF028A0
:1002000024080729840031088A00300882008313FB
:1002100003138312640008008316193099002430F8
:100220009800831290309800B801B9013808A000F6
:100230003908A100A3010A308A01BD208A110A12DF
:10024000031D7E293808A6003908A7000230A20045
:10025000A3018A01EC20BA000730B6001030B400C8
:100260000730B7000830B500A0308A0124203908D3
:100270008A01242038088A0124203A088A01222091
:1002800061308A01032031308A0103203A308A012B
:10029000032020308A010320A9013808A40039086E
:1002A000A5000230B000B1018A016D2020308A0122
:1002B000032069308A01032031308A0103203A305B
:1002C0008A01032020308A010320A9013A08A400F2
:1002D000A5010230B000B1018A016D200D308A0104
:1002E00003200A308A0103200A308A019B20B80AC1
:1002F0000319B90A8A110A12031D1629B801B90196
:100300003808A0003908A100A3010A308A01BD20E5
:100310008A110A12031DE8293808A6003908A70027
:100320000330A200A3018A01EC20BA000730B60016
:100330001030B4000730B7000830B500A2308A0191
:10034000242039088A01242038088A0124203A0808
:100350008A01222061308A01032032308A01032081
:100360003A308A01032020308A010320A90138088D
:10037000A4003908A5000230B000B1018A016D2047
:1003800020308A01032069308A01032032308A013B
:1003900003203A308A01032020308A010320A9017A
:1003A0003A08A400A5010230B000B1018A016D2015
:1003B0000D308A0103200A308A0103200A308A01A5
:1003C0009B20B80A0319B90A8A110A12031D802951
:1003D000B801B9013808A0003908A100A3010A300A
:1003E0008A01BD208A110A12031D522A3808A6006C
:1003F0003908A7000430A200A3018A01EC20BA004A
:100400000730B6001030B4000730B7000830B50030
:10041000A4308A01242039088A01242038088A015E
:1004200024203A088A01222061308A0103203330D7
:100430008A0103203A308A01032020308A010320F8
:10044000A9013808A4003908A5000230B000B101A4
:100450008A016D2020308A01032069308A0103203F
:1004600033308A0103203A308A01032020308A0188
:100470000320A9013A08A400A5010230B000B1018F
:100480008A016D200D308A0103200A308A01032081
:100490000A308A019B20B80A0319B90A8A110A1284
:1004A000031DEA29B801B9013808A0003908A100E4
:1004B000A3010A308A01BD208A110A12031DB22A43
:1004C0000730B6001030B4000730B7000830B50070
:1004D000A1308A01242039088A01242038088A01A1
:1004E00024208A010920BC0061308A0103203130B8
:1004F0008A0103203A308A01032020308A01032038
:10050000A9013808A4003908A5000230B000B101E3
:100510008A016D2020308A0103206B308A0103207C
:1005200031308A0103203A308A01032020308A01C9
:100530000320A9013C08A400A5010230B000B101CC
:100540008A016D200D308A0103200A308A010320C0
:100550000A308A019B20B80A0319B90A8A110A12C3
:10056000031D542AB801B9013808A0003908A100B8
:10057000A3010A308A01BD208A110A12031D122B21
:100580000730B6001030B4000730B7000830B500AF
:10059000A3308A01242039088A01242038088A01DE
:1005A00024208A010920BC0061308A0103203230F6
:1005B0008A0103203A308A01032020308A01032077
:1005C000A9013808A4003908A5000230B000B10123
:1005D0008A016D2020308A0103206B308A010320BC
:1005E00032308A0103203A308A01032020308A0108
:1005F0000320A9013C08A400A5010230B000B1010C
:100600008A016D200D308A0103200A308A010320FF
:100610000A308A019B20B80A0319B90A8A110A1202
:10062000031DB42AB801B9013808A0003908A10097
:10063000A3010A308A01BD208A110A12031D722B00
:100640000730B6001030B4000730B7000830B500EE
:10065000A5308A01242039088A01242038088A011B
:1006600024208A010920BC0061308A010320333034
:100670008A0103203A308A01032020308A010320B6
:10068000A9013808A4003908A5000230B000B10162
:100690008A016D2020308A0103206B308A010320FB
:1006A00033308A0103203A308A01032020308A0146
:1006B0000320A9013C08A400A5010230B000B1014B
:1006C0008A016D200D308A0103200A308A0103203F
:1006D0000A308A019B20B80A0319B90A8A110A1242
:0A06E000031D142B63008A01722B26
:02400E00753FFC
:00000001FF
